:020000040000fa
:080000000002040000000000f2
:020000040000fa
:10000800cc020000d2020000ee020000d80200007c
:10001800de020000e4020000f2020000ea02000032
:10002800ea020000ea020000ea020000ea02000018
:10003800ea020000ea020000ea020000ea02000008
:10004800ea020000ea020000ea020000ca13000007
:10005800c2130000ea020000ea020000ea020000ff
:10006800ea020000ea020000ea020000ea020000d8
:10007800ea020000ea020000ea020000ea020000c8
:10008800ea020000ea020000ea020000ea020000b8
:10009800ea020000ea020000ea020000ea020000a8
:1000a800ea020000ea020000ea020000ea02000098
:1000b800ea020000ea020000ea020000ea02000088
:1000c800ea020000ea020000ea020000ea02000078
:1000d800ea020000ea020000ea020000ea02000068
:1000e800ea020000ea020000ea020000ea02000058
:1000f800ea020000ea020000ea020000ea02000048
:10010800ea020000ea020000ea020000ea02000037
:10011800ea020000ea020000ea020000ea02000027
:10012800ea020000ea020000ea020000ea02000017
:10013800ea020000ea020000ea020000ea02000007
:10014800ea020000ea020000ea020000ea020000f7
:10015800ea020000ea020000ea020000ea020000e7
:10016800ea020000ea020000ea020000ea020000d7
:10017800ea020000ea020000ea020000ea020000c7
:10018800ea020000ea020000ea020000ea020000b7
:10019800ea020000ea020000ea020000ea020000a7
:1001a800ea020000ea020000ea020000ea02000097
:1001b800ea020000ea020000ea020000ea02000087
:1001c800ea020000ea020000ea020000ea02000077
:1001d800ea020000ea020000ea020000ea02000067
:1001e800ea020000ea020000ea020000ea02000057
:1001f800ea020000ea020000ea020000ea02000047
:10020800ea020000ea020000ea020000ea02000036
:10021800ea020000ea020000ea020000ea02000026
:10022800ea020000ea020000ea020000ea02000016
:10023800ea020000ea020000ea020000ea02000006
:10024800ea020000ea020000ea020000ea020000f6
:10025800ea020000ea020000ea020000ea020000e6
:020000040000fa
:100400002f1321000eff2d000e01880000000000b8
:1004100000012000200288000c000700603f21003e
:10042000010020000f000700000020000000e00095
:10043000020032000000020000000000f20e020084
:10044000000000000040da000000fe002014200040
:100450000000e0000200320000202000900188002f
:1004600000000600a1028800800078000000eb0078
:100470001a003700e280400054a0b4009101ba0095
:10048000e280400054a0b4009102ba00e280400033
:1004900054a0b4000002eb00472bde00f507b200c9
:1004a000a6018800602ce10008003a000049eb003a
:1004b0000201e800020039003420ec0002f0a00044
:1004c0008301e900f9ff3e00040037006128e100e4
:1004d000010032000082eb00040007001101ba00a5
:1004e0000200e000e3ff3a000000060004d0a30091
:1004f000e20f49001c003900810278003549ba003a
:100500000201e800020039003420ec0002f0a000f3
:100510008301e9000f0032002549ba000201e8001a
:10052000020039003420ec0002f0a0008301e90051
:10053000080032000400e0000600320015c9ba00cd
:100540000201e800020039003420ec0002f0a000b3
:100550008301e9008180e80054a0b4000300e000ba
:10056000e2ff3a00000006009102ba000559780047
:100570008301e900f7ff3200c82ade000559780040
:100580008301e900f3ff32000400e000f1ff3200d4
:1005900011d9ba00eeff37000000fa00c028a90008
:1005a000ffff37000000fa00c068a900ffff370016
:1005b0000000fa00c048a900ffff37000000fa0061
:1005c000c088a900ffff37000000fa00c0a8a900fa
:1005d000ffff37000000fa00ffff37000000fa00bd
:1005e000ffff37000000fa00ffff37000000fa00ad
:1005f0000411800066026200e60f52000c003a000f
:10060000030037002322ab00feff3a0025118800cb
:10061000b0027800e08f5200faff3a00070037007e
:100620002322ab00feff3a008502fb002511880063
:10063000b0427800e0cf5200f9ff3a000080fa00a3
:100640000000060003f0a200889fbe008a9fbe0043
:100650008c1f7800af000700b60033006450e10043
:100660004f0032006420e1005200320003826c002f
:1006700007003b000905d0000306d000820f54009c
:100680000c065d000200390002003200890178008a
:10069000030678008582550004003d000003fd003c
:1006a0008103fd008502ea008b854200840f720001
:1006b00002003b0060001000e08018006011b800ec
:1006c0000005eb007a28e1000a00390006007800f6
:1006d000c75ddd00f707b200878075002d00370089
:1006e000828171000a017800610560008180d1007b
:1006f0000080d3008502e900f9ff3b0006044000ba
:100700008784480002003b0060041400e0841c0061
:100710000988a300070032008a817100828171007c
:10072000610164008904d1000884d3008b05e800ce
:10073000170037000978a30013003a000b00e0000f
:10074000130034008b05e9000804440089844c0040
:100750000a4474000978a3000d003a000b00e00081
:10076000070034008b05e9000804440089844c002c
:1007700001003a000b0020000978a300f7ff3200c7
:100780000001eb0002003700828171000a0178004d
:10079000250007000cf0a70001f0a0006e00370054
:1007a0006420e10002003a00838f6c006e00330089
:1007b0000801be000200be00670037000001be0055
:1007c0003f0007000470a70003f0a10003f8a30096
:1007d00013003a006509b10010003200090035002d
:1007e0006928e10002003500010028000000050032
:1007f00000004000818048008502e900fcff3a00cb
:1008000000000600f88f4200050035008100d1008d
:100810000080d3008502e800fcff3a0000000600db
:100820008000eb0000000500810020006180550081
:100830000b003d000b00200061fe2f000100e100d5
:100840001d00340082817100610164008904d100bf
:100850000884d3000000e800faff3a00710020008d
:1008600061006400030070000200600009003200b3
:1008700061044400e0844c000988a50005003200b2
:100880008b05e8006808e10002003a008904d10005
:100890000884d300f20f20000258e10005003d005b
:1008a000c75ddd00f907b200898075000800780097
:1008b000000006000bf827008b0078000000050000
:1008c000c70ade00f107b200f50fb20008003200df
:1008d000e1cf4200020032000170a00024000500b8
:1008e000810f70000100320004080500440005007b
:1008f000810f700002003a00140005008502e90033
:100900000000400081c04800fcff3b000170a000d7
:10091000240005000004be00e9ff07000003be003c
:100920000405be000200be00e5ff0700844f75000d
:10093000000006000200be006450e1000500360021
:100940006420e100020036000968a30001003a00bb
:100950000800be000160a0004f0678004f05be00f1
:100960004f04be0000000600f0ff2f00f1ff27003b
:10097000f9ff37000000fa0000027800020037009b
:10098000315a78000201e900e00f5100fcff3a0003
:100990000080fa00000006000c00fa00889fbe00ec
:1009a00000047800f4ff2700540798008004eb004f
:1009b00019079800080f780028079800240c2000d9
:1009c0003407980068015700ceb897000e007800f1
:1009d000060007001e027800094a78001e00140075
:1009e0004f04be000080fa00000006003200fa004a
:1009f000889fbe008a9fbe008c9fbe00500f98004b
:100a0000310f9800221798008006eb007f02370014
:100a1000be0890008100e800310f980054c2b30076
:100a2000844f500006003a00010278000006eb00f7
:100a300001c3b30000c2b300b7c2b3000700370060
:100a40000000fb00de0890007b020700e10f400081
:100a50006e0232008d06e8006c02370084027800d6
:100a600034437800d2c2b300824f530009003200f1
:100a700005003c00804f530008003200874f5300b0
:100a80000c003a0007003700814f530009003a007c
:100a9000060037000c30a000f0ff37000c00a0006b
:100aa000eeff37000c10a000ecff37000c20a00078
:100ab000eaff370062026600010032000c00a1006c
:100ac00068026600010032000c20a1000602fb0053
:100ad0000403b100e90f52000c003e00050378004a
:100ae0000002eb00ea22b800b602fb000503b100e9
:100af00004824200860278009603fb000703b100df
:100b0000e98f5300f7ff3600080037000002eb00c2
:100b1000a7c2b300874f530004003a00ae11900003
:100b200043027800231798008502e8000003eb00d9
:100b300036179800e6c2b300954f13000c003a0038
:100b40000ce0a00064435300d54f130003003200b3
:100b5000050378000000eb0009003700ae13900099
:100b60004700780027179800301798008502e800a2
:100b70000503780009003700ea00b8000080430050
:100b800086027800b603fb000703b100e98f53002b
:100b9000f9ff360030179800f5ff3700b6427800ad
:100ba000360f9800c2c6b30082cf52002500320033
:100bb0000f003c0036c6b30086cf520075003200ed
:100bc00004003c00e0cf5200150232006b4353009a
:100bd0000f00370046c6b30086cf52001700320020
:100be0006543430086cf520089003a001300370066
:100bf00036c7b30086cf52001f00320007003c000a
:100c00006443530086cf5200140032000643e800cc
:100c100086cf52007e003a001300370056c7b3005b
:100c200086cf52007e0032006343430086cf5200dd
:100c300077003a00054f78000d003700054f780027
:100c400079003700f0036600050120000100320042
:100c50000500280005067600d0ff3700054f780014
:100c60000c60a00070003700054f78000c50a00009
:100c70000c70a0006c003700054f7800ae1190009a
:100c8000c30278002317980005047800e08f520013
:100c900001003a00c80f2100080378008002eb0031
:100ca000010037008502e800850343000040eb00a7
:100cb000974f1000fbff3a0085047800be109000ab
:100cc000e08f500003003200898f50000100310096
:100cd000810478008002eb00890f52000100360089
:100ce000890252006806660018003a0009003700c1
:100cf000de0890000002200075179800ce01070062
:100d0000fe129000e10f4000010032008d06e80065
:100d10008502e900e08f5200f5ff3a008082eb0087
:100d20000a003700080278003400fb000404780051
:100d3000de08900075179800bf010700fe129000b2
:100d4000e10f4000010032008d06e8000902780042
:100d50008404e900e00f5200f2ff3a00e00f560071
:100d6000aa0132000506780007003700de0890006f
:100d700000022000b0010700e10f40000100320036
:100d80008d06e8000c06e900e00f5600f7ff3a0078
:100d90009e0137002e119000c202780022179800a1
:100da00005007800cf80de00010178008201780024
:100db000600f9800710f98000217980013179800a1
:100dc0004800de00c80add0000807200004f780095
:100dd0007003660009003200e04f50000700320047
:100de000e14f400005003200104798004e5b900034
:100df000264798002900200003003700ce5b9000b2
:100e000017479800190020000e04e800abff3700d8
:100e1000054f78000e04780019002000a7ff370066
:100e2000054f78000c0cb3008c027800050cb20062
:100e30002a003a00e00f560005003d002e109000f9
:100e40004005be004004be00201798001600370081
:100e5000f00266000e003200ae1290004501be00a6
:100e600025179800320798004307980095029000d4
:100e7000cfaade0055079800650798003e04900051
:100e8000ce0490005e059000ee059000060037004d
:100e9000ae1390004704780027179800cfc4de00f7
:100ea000090578008a057800e00f5400e08f5c00a7
:100eb000e00f5d00e08f5d0025003d003c00b300c9
:100ec0006000b8006011b800080450008984580020
:100ed0000a0559008b8559001d003700e00f5600a8
:100ee00005003d002e1090004005be004004be00ed
:100ef0002017980016003700f00266000e0032003e
:100f0000ae1290004501be002517980072079800a8
:100f1000030f98000003eb00160f98008003eb000e
:100f2000270f98007e0490008e0c90001e0d9000fc
:100f3000ae0d9000060037002e109000400478009f
:100f400020179800090020000a0020000b00200054
:100f5000be109000e08f500009003a0012002000ff
:100f600032179800e00f5400e08f5c00e00f5d0046
:100f7000e08f5d00020032008001eb003317980023
:100f80008c027800050cb200650f98000504200063
:100f90006e0b9000850f53002c00320003003c00c4
:100fa000e00f5300080032003c0037000508200025
:100fb000ee0b9000858f530010003200050c2000ce
:100fc000858f530035003a002604210015c0b30078
:100fd0003600be003601be000040e10001c8e1005d
:100fe00002d0e10003d8e1002b0039008542e8007f
:100ff000f4cf5200f6ff3a002700370015c0b300c7
:1010000000012000010020006011b8000040e10054
:1010100001c8e10002d0e10003d8e1001e00390060
:10102000460020000000d0008180d2000281d20062
:101030008381d2000603e900faff3a008542e80006
:10104000f0cf5200f1ff3a001300370015c0b30093
:1010500080002000010020006011b8000040e10085
:1010600001c8e10002d0e10003d8e1000a00390024
:10107000370020000000d0008180d2000281d20021
:101080008381d2008703e900faff3a008542e80035
:10109000f5cf5200f1ff3a00054f78009e02fb00a9
:1010a0003e109000808f520002003d00004f7800fb
:1010b00004003700be109000858f500001003d00f5
:1010c00035179800e00f520003003200e30266007b
:1010d000010032000402e9000500240085026600d8
:1010e000060032003e119000820f520002003400d0
:1010f00002025200010037000002eb009e02fb00da
:101100008001eb00430f9800850f5200020034006d
:1011100085025200450f9800640266002c003200e0
:10112000e202660061026600e08f520006003200b3
:10113000b0022000e00f5200010032000080e80001
:10114000de08900004003700e00f52000600320075
:10115000de08900000022000b7000700e10f400009
:10116000010032008d06e8004e0a9000e00f5200a8
:10117000900032000802be000a03be00ce0c9000b0
:10118000de089000000320004417980075179800af
:101190005617980067179800a70007004e12900096
:1011a000fe1290005e139000ee139000e10f4000dd
:1011b000010032008d06e8008904e900f0ff3a00e2
:1011c000490f98000605be000404be0079003700f0
:1011d000ce0a9000e08f52001800320068026600cc
:1011e00016003a000802be000a03be00ce0c9000b2
:1011f000de08900000022000441798007517980040
:1012000056179800671798008b0007004e12900041
:10121000fe1290005e139000ee139000e10f40006c
:10122000010032008d06e8008904e900f0ff3a0071
:10123000490f98000605be000404be00e2026600e5
:1012400061026600e08f520006003200b00220000a
:10125000e00f5200010032000080e800de0890003c
:1012600004003700e00f520052003200de08900008
:101270000002200070000700e10f40004d00320026
:101280008d06e8004b0037003e1390000603e9008e
:1012900036179800ee0b90000c0420008c8f530042
:1012a0002e00320003003c00e08f530008003200a3
:1012b00039003700040820006e089000840f5000a9
:1012c00012003200040c2000840f500032003a005b
:1012d000be109000430add00a2032100020242007a
:1012e0005403be004402be000800be000a01be0056
:1012f000aa010700a4002000050020006033b80008
:10130000af01070004c3b30022003700b40e210070
:10131000ae029000e08f520001003200a40d2100c7
:101320003e139000c232dd000800be000a01be007c
:101330008502e900050033008301d1000281d3005a
:101340008180d3000080d300f9ff37006f00600078
:1013500000004200104f78000f003700be139000cd
:10136000e33ab8000800be000a01be000406780097
:101370000c06e900050033008301d1000281d3008f
:101380008180d3000080d300f9ff370067426000fe
:1013900000c3b300004f42001e00fb00de089000b7
:1013a00025000700e10f4000060032008d06e8002e
:1013b000040037008c0078000102b2002107980079
:1013c0000c1f98003e119000e00f5100aeff3a0054
:1013d0000e1e9000680666000c003200ce099000d8
:1013e000e08f51000900340003067800de08900009
:1013f0000002200010000700e10f40000100320051
:101400008d06e8000c06e900f8ff3a003e0a90005d
:1014100014407800004f7800e04f50007cfd3a0007
:101420000d0078004f06be004f05be004f04be0001
:101430000080fa00000006000000fa00889fbe004d
:101440000104780038029000e20262008084eb0020
:101450003b003200040378000620b200980290009e
:1014600002003a00e08f520035003a000490a000dc
:101470003404980080047800f90fb200e08f520025
:1014800002003a00a8029000050c7800ea8f540090
:1014900005003a000408b20003003a008800780012
:1014a000d0002000e4ff070018029000d80290004e
:1014b000850f52000b0032000402e800140498006b
:1014c00018027800094a7800040ce80015c0b3003f
:1014d000a4122100054a7800ea8f540018003a004f
:1014e00005003700880078000940780018000700e0
:1014f0008004780012003700380290000410b20017
:101500000f00320018019000a800900048009000e1
:101510005300070018029000840f500004003200ae
:10152000380290000403b300340498008084eb0078
:101530000002eb001404980028029000040c7800cc
:10154000090078004f04be000080fa000000060089
:101550000200fa00889fbe00004f78000104780066
:1015600038029000840278000504b20002003200c4
:101570000000fb0033003700e202620005003a0081
:101580000403b30034049800150498000080eb00b5
:101590002c003700d8049000e08f540006003a0079
:1015a000120020008e007800480090002c000700f8
:1015b0001904980022003700a8029000e08f520022
:1015c00008003a00d512210025049800050c780087
:1015d0002500200055049800150498000430a00050
:1015e0003404980018019000a80090004800900072
:1015f0001b000700280290008082eb001504980071
:101600001e4a7800040ce800a4c0b3009e4f1200ec
:101610000b003a00380290000410b20008003200bb
:1016200018019000a8009000480090000c000700ee
:101630000002eb001404980028029000040c7800cb
:101640001e00fb004f04be000080fa0000000600f0
:101650000000fa0000c0da000080fa000000060076
:101660000a00fa00e20f500022003e008489800048
:10167000e10f52000600320087232000462320009d
:101680002423200005232000e08f530004003a00ab
:10169000872220004622200024222000052220004c
:1016a000000028001500600003003a00800b78005d
:1016b00007002800958a730005402000948262008c
:1016c00001003a0014a0a000820278000600370052
:1016d000940378000710b200fdff3200b103fb0055
:1016e000070b78008502e900e08f5200f8ff3a000e
:1016f0000800370034002000040f7800100798001d
:1017000021079800320798000e007800d0ff0700ec
:101710003e019000020078000080fa000000060000
:101720000000fa00889fbe008a9fbe003004be0001
:101730002005be000404440085844c0006054d00cd
:1017400087854d000898be000a90be000440e10065
:1017500005c8e10006d0e10007d8e1000200310031
:10176000680040001008e8004f05be004f04be00ae
:101770000080fa00000006001000fa00889fbe00fa
:101780008a9fbe000605be000404be003002be00f3
:101790002003be00049fbe000697be000802520050
:1017a00089825a000a035b008b835b004407980020
:1017b0005507980066079800770798000498be00c0
:1017c0000698be00110020003e02be002e03be009f
:1017d0000820e10009a8e1000ab0e1000bb8e1002f
:1017e000010039008000eb00108810004f05be009a
:1017f0004f04be000080fa00000006001400fa004a
:10180000889fbe008a9fbe008c9fbe0059000700c3
:101810000605be000404be000006eb004c0798005d
:101820003c0798002c0798001c0798000c0f7800c4
:101830000d0420004e039000be029000860343007a
:101840002e029000e00f530003003d002a00070025
:10185000b3ff07000200370027000700c6ff07009c
:10186000ce029000150f9800e08f5200090035005d
:101870004500070014002000050020006033b80078
:101880000000720081807200020173008381730086
:10189000380007000c06e8008d0f5600e5ff3a00ff
:1018a0001e0a9000e00f520004003d000802be0036
:1018b0000a03be000e00780099ff07004eba970099
:1018c000e00f520006003a003e04be002e05be00a6
:1018d00058079800690798007a0798000b0f98003e
:1018e000290007004f06be004f05be004f04be0092
:1018f0000080fa00000006004f2bde008703730013
:10190000470798004f23de0085824200850273005e
:10191000350798009e0290004f2bde000402420023
:1019200004027300240798001e0278004f23de0093
:101930008582420085027300150798001200070097
:101940004f18de0004024200000f72000e00070074
:101950000000400081804800020149008381490065
:10196000040007000802be000a03be000e00780053
:101970000000060050079800610798007207980061
:10198000030f9800000006005e009000ee0090003b
:101990007e0190008e099000000006000000fa0011
:1019a000881f780018002000881f780093ff070028
:1019b0008f87e9004f0478000080fa0000000600dd
:1019c0000000fa00801feb008cff07008f87e90002
:1019d0000080fa00000006000000fa00889fbe00a8
:1019e0008a9fbe00e00f5000e08f5800e00f5900c2
:1019f000e08f59000c003d006044b8006055b8000d
:101a00000000540081805c0002015d0083815d0064
:101a1000180020001600070008003d00190007000c
:101a20000004eb00050037000004eb001000070085
:101a300002003d001300070018002000d7ff070038
:101a4000e00f5400060032006022b8006033b80096
:101a50000000520081805a0002015b0083815b001c
:101a60004f05be004f04be000080fa0000000600d3
:101a7000e00f5200e08f5a00e00f5b00e08f5b0048
:101a8000000006006044b8006055b800040254002d
:101a900085825c0006035d0087835d000000060010
:101aa0000000fa00889fbe008a9fbe008c1f78004d
:101ab000e00f5000e08f5800e00f5900e08f590010
:101ac0000d003d006044b8006055b80000005400af
:101ad00081805c0002015d0083815d001c002000ac
:101ae0000820e10009a8e1000ab0e1000bb8e1001c
:101af0000d003d00080037000006eb00e00f52002b
:101b0000e08f5a00e00f5b00e08f5b0006003d00b5
:101b10006044b8006055b8000402540085825c003f
:101b200006035d0087835d00a5ff0700e00f5600f8
:101b3000060032006022b8006033b8000000520096
:101b400081805a0002015b0083815b004f067800b0
:101b50004f05be004f04be000080fa0000000600e2
:020000040000fa
:101b60000a0d00002d2d00002d2d00002d2d000050
:101b7000537400006172000074200000546500007e
:101b800073740000696e0000672d00002d2d0000a9
:101b90002d2d00002d0000000a0d00002042000045
:101ba0006c6900006e6b0000696e00006720000029
:101bb0005465000073740000000a00000d2000004e
:101bc00041430000542000005445000053540000dd
:101bd000000a00000d2000004144000043200000e6
:101be0005465000073740000000a00000d2000001e
:101bf000426c00006f770000657200002054000006
:101c000065730000740000000a0d00000000000071
:101c100000000000000000000000000000000000c4
:101c200000000000000000000000000000000000b4
:101c300000000000000000000000000000000000a4
:101c40000000000000000000000000000000000094
:101c50000000000000000000000000000000000084
:101c60000000000000000000000000000a0d00005d
:101c7000203300002e330000562c000035560000a3
:101c80002c31000032560000206100006e6400001c
:101c90002032000034560000204c00004544000073
:101ca000732000006d750000737400002062000056
:101cb000652000006c690000740000000a0d00003f
:101cc000204400004542000055470000204c000021
:101cd00045440000203100007e340000206d0000eb
:101ce000757300007420000062650000206200002f
:101cf0006c6900006e6b0000696e000067000000f8
:101d00000a0d000020480000525400004245000027
:101d100041540000204c000045440000206d0000ac
:101d200075730000742000006265000020620000ee
:101d30006c6900006e6b0000696e000067000000b7
:101d40000a0d0000205000006f730000697400004d
:101d5000696f00006e3a000020250000640000005a
:101d60000a0d0000202d00002d2d00002d2d00005b
:101d70002d2d00002d2d00002d2d00002d2d0000fb
:101d80002d2d00005443000020520000656100002a
:101d9000646900006e6700002d2d00002d2d0000ed
:101da0002d2d00002d2d00002d2d0000000a00001b
:101db0000d250000642c0000256400002c25000087
:101dc000642c0000256400002c250000642c000019
:101dd000256400002c250000642c00002564000010
:041de00000000000ff
:020000040000fa
:101de4003400fa0057030700f90207001303070041
:101df4004e0307006b00070044e028008e02e80051
:101e0400944a78008502e8000402e800944a7800c5
:101e14008502e8000402e800944a78008502e8009c
:101e24000402e800640247002e000900005aeb0097
:101e34000e02e800a48188000042eb00044f780001
:101e440004003700a481800004007800e6f907004c
:101e54001e4fe8001e427800e94f5200f9ff34009b
:101e64000e02e800c201200001db28000400780013
:101e7400bffa0700a481800004007800daf90700a3
:101e84000f010700090037000e02e80012012000cc
:101e9400c1dc280004007800b5fa0700a4818000a2
:101ea40004007800d0f907004b000700050021006a
:101eb4009542780004c2b30084cf5200f2ff32008e
:101ec4000100370037000700050021009542780023
:101ed40004c3b30084cf5200faff32000a00370073
:101ee400300007000e02e800c2002000d1dd280007
:101ef400040078009efa0700a481800004007800a2
:101f0400b9f907009c0007000500210095427800fc
:101f140014c3b30084cf5200f1ff32000a0037002b
:101f2400200007000e02e800c200200091de280015
:101f3400040078008efa0700a48180000400780071
:101f4400a9f90700de00070005002100954278008a
:101f540024c3b30084cf5200f1ff32000a003700db
:101f6400100007000e02e800f200200051df2800f4
:101f7400040078007efa0700a48180000400780041
:101f840099f90700a0010700050021009542780097
:101f940034c3b30084cf5200f1ff320000000000cc
:101fa400c2ff37000000fa0065eea90044cea90084
:101fb400242ea900248ea900246ea900444ea90051
:101fc400448ea90044eea900244ea90065aea900e0
:101fd4000080fa00000006000000fa0082022000df
:101fe40061e328001000210061fa0700a481800049
:101ff400040078007cf9070022022000e1e52800b3
:10200400100021005afa0700a4818000040078001f
:1020140075f907000202200001e8280010002100e1
:1020240053fa0700a4818000040078006ef90700c9
:102034004a00370084032100144278000442e80077
:102044000440780038f0b70094032100144278006b
:102054000442e8000440780039f0b70094032100fa
:1020640014427800e44f5200030034000042eb00b5
:102074000440780039f0b7000002eb00b481880016
:1020840003003700b48180000402e800b4818800b2
:10209400b5818000f4a52e00848f5200f9ff36002c
:1020a40094032100144278000402fb006123b90068
:1020b4000082eb008082eb000602420087824a0025
:1020c4003600200007002000860f5200878f5a0038
:1020d4001d003e000406010003003700080037001d
:1020e4000c0037001100370065eea80044cea900ab
:1020f400242ea900248ea900246ea80017003700fe
:1021040065eea90044cea800242ea900248ea900bf
:102114001200370065eea90044cea900242ea800c1
:10212400248ea900444ea9000c00370065eea900d6
:1021340044cea900242ea900248ea800448ea90010
:10214400246ea9000500370065eea90044cea9005d
:10215400242ea900248ea9000000000005002100ff
:102164009542780004c2b30084cf5200b1ff32001c
:102174000080fa00000006000400fa0014002100a8
:10218400a4818800441f200024608800441f20008c
:1021940044648800441f200084648800640920008b
:1021a400546088000002eb00546488000002eb00d5
:1021b4006464880004c028001464880004102000ab
:1021c4000464880034002000246488000002eb00ca
:1021d400146088000400280004608800e53580004d
:1021e40004f82f00048262004401b300e43588003f
:1021f400e5358000f40f2800848262000450210039
:1022040004827200e43588000002eb00440e88006a
:102214000002eb00340e8800c1e1a8001d00370065
:10222400340e8000140798001e0fe8000471220089
:102234009e027800848f52000c0034000002eb00f0
:10224400040f78001e029000841f780004ea28001e
:10225400841f780010002100cef90700e48757009e
:10226400a481800004007800dff807009e0290003b
:1022740084382100848f520002003400244ea800c8
:10228400040037001e029000e90f520001003c00d8
:10229400244ea900050021009542780014c3b30020
:1022a40084cf5200deff32000002eb00546088004d
:1022b4000002eb00046088000080fa0000000600c1
:1022c4001600fa0001a8a90021a8a90021e3a90089
:1022d40021a3a9002183a9002143a8000419800097
:1022e4000480a1000490a10004198800041980004e
:1022f4000450a0000460a0000470a0000419880029
:102304002083a9002043a8002023a9002003a900ba
:102314001419800004d0a00004e0a00004f0a1007f
:10232400141988002343a900141980000480a10013
:102334000490a1001419880022e3a8001519800054
:1023440034f82f0004826200141988002223a900a3
:102354002203a90025e3a90025198000f40f2e000b
:10236400048262002419880014c0b3000440780079
:1023740024e3b7003303a9002703a900341980001c
:102384000490a10004a0a10034198800341980002d
:102394000410a1000420a100341988002603a90018
:1023a40029e3a90045198000f40f2e00048262007d
:1023b4004419880028e3a9004519800004fe2f0071
:1023c40004826200a400b3004419880014002000b1
:1023d4008419880021e3a8002023a8002023a90051
:1023e4008200370014002100a48188001e0290009e
:1023f4000402e800140798001e029000ea0f52003d
:10240400540036000002eb00140798000042eb0071
:10241400044f78004c0037001e02fb00cfa2de0000
:102424007600200007002000860f5200878f5a0094
:1024340029003e0004060100070037000a003700a7
:102444000d00370010003700130037001600370066
:10245400190037001c003700042ea90055aea9004e
:10246400558ea90020003700042ea90055aea900fe
:10247400558ea8001c003700042ea90055aea800f4
:10248400558ea90018003700042ea90055aea800e7
:10249400558ea80014003700042ea80055aea900dc
:1024a400558ea90010003700042ea80055aea900cf
:1024b400558ea8000c003700042ea80055aea800c5
:1024c400558ea90008003700042ea80055aea800b8
:1024d400558ea80004003700042ea90055aea900ab
:1024e400558ea900000000002023a8002023a90085
:1024f4000002eb0024079800030037002e0290002e
:102504000402e80024079800ae029000f470220050
:10251400848f5200f9ff360000000000054080005f
:102524000400220004826200e00f5200fbff32002c
:102534001e02fb00051880000402420066024200ed
:1025440005377a001e4fe8001e427800e74f52001c
:10255400b1ff34007202200001eb280010002100ba
:1025640003f90700a4818000040078001ef8070026
:102574003200200041e0280010002100fcf8070090
:10258400a48180000400780017f80700ae099000c9
:102594001e0990008e0890007e009000ee039000cb
:1025a4005e039000ce0290003e029000831f7800ec
:1025b400821f7800811f7800801f7800871f7800b1
:1025c400861f7800851f7800841f780074ed28002a
:1025d400841f780010002100eef80700f2875700ee
:1025e400a481800004007800fff7070005002100a3
:1025f4009542780024c3b30084cf520079ff32009f
:102604000080fa00000006000400fa001400210013
:10261400a481880045348000f40f2c008482620079
:10262400049022000482720044348800f53480004f
:1026340004fc2f0084826200a40220000482720041
:10264400f4348800441f200024608800441f2000c4
:1026540044648800441f20008464880064092000c6
:10266400546088000002eb00546488000002eb0010
:102674006464880004c028001464880004102000e6
:102684000464880034002000246488000002eb0005
:10269400146088000400280004608800e535800088
:1026a40004f82f00048262004401b300e43588007a
:1026b400e5358000f40f2800848262000450210074
:1026c40004827200e43588000002eb00440e8800a6
:1026d4000002eb00340e8800c1e1a8001d003700a1
:1026e400340e8000140798001e0fe80004712200c5
:1026f4009e027800848f52000c0034000002eb002c
:10270400040f78001e029000841f780004ea280059
:10271400841f7800100021009ef80700e48757000a
:10272400a481800004007800aff707009e029000a7
:1027340084382100848f520002003400244ea80003
:10274400040037001e029000e90f520001003c0013
:10275400244ea900050021009542780014c3b3005b
:1027640084cf5200deff32000002eb005460880088
:102774000002eb00046088000080fa0000000600fc
:102784000000fa000188a9000080fa000040060059
:10279400801f7800841f78000000fa000168a900f7
:1027a40034118000044278000440780000f0b7003f
:1027b4001411800064026200e00f52000100320034
:1027c4002242a9001411800062026200e00f52004c
:1027d400010032002222a9000080fa004f02780092
:0827e4004f00780000400600e0
:020000040000fa
:1027ec00001000003400000082000000200a0d00e0
:1027fc0000000000000000000000000000000000cd
:10280c0000000000000000000000000000000000bc
:10281c0000000000000000000000000000000000ac
:10282c00000000000000000000000000000000009c
:10283c0000000000341000000600000080000000c2
:10284c00da1000002a000000820000003031320053
:10285c0033343500363738003941420043444500a3
:10286c004600300031323300343536003738390009
:10287c00616263006465660000286e00756c6c0014
:10288c00290000003a100000a000000082000000a7
:10289c00010000000000000000000a000000000021
:1028ac0000000000006400000000000000000000b8
:1028bc00e8030000000000000000100027000000ea
:1028cc000000000000a086000100000000000000d5
:1028dc0040420f00000000000000800096980000ad
:1028ec00000000000000e100f50500000000000001
:1028fc0000ca9a003b00000000000000e40b5400ea
:10290c00020000000000e8007648170000000000fc
:10291c000010a500d4e8000000000000a0724e00da
:10292c0018090000000040007a10f3005a00000063
:10293c000080c600a47e8d000300000000c16f0063
:10294c00f2862300000000008a5d780045630100d8
:10295c0000006400a7b3b600e00d000000e8890099
:10296c000423c7008a0000002a11000006000000a2
:10297c00800000000411000026000000820000000e
:10298c002b110000002b11000900000000020000b8
:10299c002d110000002d11000e020100000000009e
:1029ac000000000000000000060202000000000011
:1029bc000411000030110000020000008200000031
:0829cc00010000000000000002
:020000040000fa
:1029d4000000fa0061eea90040cea900202ea90053
:1029e400208ea900404ea900408ea900206ea900a7
:1029f400518ea90051aea900002ea900500ea800c6
:102a0400502ea80000aea800008ea8001f4ea800fb
:102a1400114ea8001f6ea800116ea8001f8ea800fa
:102a2400118ea8001faea80011aea8001fcea800ea
:102a340011cea8000080fa00000006000600fa008b
:102a440031eea900610ea90031cea8002536800020
:102a540004f82f0084826200e404200004827200df
:102a6400243688004534800004fc2f000482620070
:102a74000400a00044348800e534800004fc2f00e6
:102a8400048262000410a000e434880084e32c0073
:102a9400f5f72300048fbe000200200003f023009a
:102aa4001e00be00e7f607000002be000400be00e0
:102ab40041f707000002be00240798002002a90085
:102ac400041180000410a1000420a1000411880056
:102ad40020a2a9002062a9002222a9000168a9005d
:102ae4002e0290004411880023a2a90023e2a90029
:102af4002188a8002162a800041180000480a0009d
:102b04000490a10004118800141180000460a10045
:102b14000470a100141188002168a80021e2a80013
:102b24002342a8000080fa00000006000000fa001a
:102b340040eea900204ea90061aea9000080fa0071
:102b4400000006000000fa000080fa000000060001
:00000001FF
